:020000040000FA
:10000000487E0020050200001B0200005131000064
:100010001F02000021020000230200000000000077
:1000200000000000000000000000000025020000A9
:10003000270200000000000029020000F98F0000E4
:100040002D0200002D0200002D02000015F400001A
:100050002D02000000000000000000000000000071
:100060000000000000000000000000007D12000001
:100070002D0200002D0200002D0200002D020000C4
:100080002D0200002D020000D50600002D02000008
:100090002D0200002D0200002D02000000000000D3
:1000A0009D0E00002D020000000000002D02000047
:1000B0002D0200002D020000000000002D020000B3
:1000C000000000002D020000000000002D020000D2
:1000D0002D0200002D020000DDF900002D020000BD
:1000E0000000000000000000000000002D020000E1
:1000F00000000000AD0E0000000000002D02000016
:10010000000000002D020000000000002D02000091
:100110002D0200002D0200002D0200002D02000023
:100120008D1200002D0200002D0200002D020000A3
:100130002D0200002D020000000000002D02000032
:100140002D0200002D0200002D0200000000000022
:100150002D0200002D0200002D0200002D020000E3
:100160002D02000000000000000000000000000060
:10017000651201005D120100000000000000000097
:10018000000000002D020000000000000000000040
:10019000000000000000000000000000000000005F
:1001A00000000000000000002D0200002D020000F1
:1001B0009D1A00008D1A00007D1A00006D1A0000C3
:1001C000DFF810D000F084F80048004765300100E7
:1001D000AFF30080487E00200649086820F0010047
:1001E00008604FF0FF300449086004490860044883
:1001F0000047000010E000E080E100E084E100E062
:10020000010320000A48016821F480310160094897
:100210004FF48031016008480047FEE7FEE7FEE743
:10022000FEE7FEE7FEE7FEE7FEE7FEE7FEE700008B
:1002300004F0014000F00140C10100000649074AF6
:100240000868504343F23902104408604008704780
:100250000149086070470000F81100206D4EC6414A
:1002600040EA01039B0703D009E008C9121F08C038
:10027000042AFAD203E011F8013B00F8013B521EB8
:10028000F9D27047D2B201E000F8012B491EFBD22F
:1002900070470022F6E710B513460A460446194691
:1002A000FFF7F0FF204610BD421C10F8011B00298B
:1002B000FBD1801A704730B504460020034600E0A9
:1002C0005B1C934203D2E05CCD5C401BF8D030BD98
:1002D000064C074D06E0E06840F0010394E8070093
:1002E00098471034AC42F6D3FFF76EFF285C01004C
:1002F000485C010070B58C1810F8015B15F007031D
:1003000001D110F8013B2A1106D110F8012B03E0AE
:1003100010F8016B01F8016B5B1EF9D12B0705D4B6
:100320000023521E0DD401F8013BFAE710F8013BFF
:10033000CB1A921C03E013F8015B01F8015B521E1B
:10034000F9D5A142D8D3002070BD00007047704796
:10035000704710B50A48446A446214F00C0F02D08A
:100360002046FFF7F3FF14F4046F02D02046FFF796
:10037000EEFF14F4E02F02D02046FFF7E9FF10BD96
:1003800000F00140704770477047704770470000A9
:100390000021C16290F83010014A52F8211008473C
:1003A00080030020AFF300802DE9F84FDFF8B8920A
:1003B000D9F80001400773D5D9F84061D9F8300168
:1003C0008643002E6CD0A94F700744D5D9F84C4114
:1003D000D9F83C018443C9F84C4100232246194610
:1003E000F22012F079FEA00705D5387820F0010040
:1003F000387013F02BFB600708D53878C00705D19B
:10040000387840F00100387013F014FBE0070AD090
:100410003878C00705D1387840F00100387013F003
:1004200009FB13F0ABFA200705D5D9F8580100F401
:100430007F00C9F85801E00604D5D9F85801C0B2C8
:10044000C9F85801600606D5D9F85001C9F850011D
:100450004020C9F84C018548F10700F108004FF031
:10046000010B009036D0D9F84441D9F834018443C7
:10047000C9F84441002322461946F02012F02CFE10
:10048000E0071DD03878800713D4D9F80001400662
:1004900007D510F011FB40F24C40C9F8100104E000
:1004A000C8E042F21070C9F81001387840F002003C
:1004B000387087F801B008228020009912F068FF98
:1004C000E00607D500207870D9F8200140F004003C
:1004D000C9F82001B0073AD5D9F848A1D9F83801B0
:1004E0002AEA000A002352461946F12012F0F4FDD0
:1004F000002404F110010BFA01F010EA0A0F23D0D6
:10050000D9F838110143C9F8381107EBC400D0F805
:100510008050042C04DA09EBC400D0F8080304E08E
:10052000201F09EBC000D0F850032968C0F3102049
:10053000A1EB0008287A00234246012112F0CCFDED
:10054000287A41460FF01AFB641C082CD1D33007DF
:1005500070D5D9F82863D9F82C038643C9F82863E5
:10056000002332461946F32012F0B6FDF00743D0BF
:1005700078780424012804D003281AD002282AD02D
:100580003AE00022FF218020009B12F0A5FDB87BFD
:10059000F97B084305D0387A000604D5022078702C
:1005A00003E07C7001E003207870009810F0B6FC46
:1005B00022E03869D9F80013C1F31021451A7C7084
:1005C00000232A460121184612F086FD2946002004
:1005D0000FF0D4FA10E03869D9F80013C1F31021F4
:1005E000451A7C7000232A460121802012F074FDF8
:1005F000294680200FF0C2FA0024601C0BFA00F09C
:1006000030422BD007EBC400D0F88050287A010686
:1006100009D5D9F8380104F110020BFA02F1884328
:10062000C9F838011AE0042C05DA09EBC401D1F845
:10063000081305E015E0211F09EBC101D1F85013A3
:100640002A68C1F31021A2EB0108424601216B6820
:1006500012F042FD287A41460FF090FA641C082CF3
:10066000CBD3BDE8F88F000000700540E0650020A6
:10067000704770477047F0B4102180F83D10016852
:10068000446801234D6803FA04F22A424FF0000641
:1006900006D08B6813438B600664C16CF0BC0847BE
:1006A0001034A340CC68234206D006640A691A437A
:1006B0000A61416DF0BC0847CB681A4207D00B2392
:1006C00003640B6913430B61016DF0BC0847F0BC78
:1006D000704700002DE9F84FDFF83891D9F8000095
:1006E000002802D0401EC9F800004B4F387810B1E6
:1006F00005464A4806784A4CD4F80C01C0075BD03E
:100700000320C4F80C0103F03FFD626ADFF8188192
:10071000444898F8001000EB41100280226A4280A1
:10072000E26B8280A26BC280E2690281A26942818F
:10073000626982812269C281E2680282A268428281
:1007400062688282A26AC282626B0283226B4283E7
:10075000E26A82830091DFF8D4A04FF0010B9AF88F
:10076000020001282FD09AF803109AF8060003F02F
:100770008BFC88F8000004F009FF9AF80300401C85
:10078000C0B28AF803009AF80710491C884203D1C6
:100790008AF802B08AF803B0D9F80000A0B30020AC
:1007A0004FF40C71401C80B28842FBD3D4F8000196
:1007B00040F01000C4F80001002D02D03D70174831
:1007C0000670BDE8F88F9AF804109AF8000003F05C
:1007D0005BFC88F8000004F0D9FE9AF80400401C85
:1007E000C0B28AF804009AF80110491C884203D16B
:1007F0008AF804B003F05CFC9AF807000028CBD01C
:1008000000208AF80200C7E7FFE7009803F040F9EC
:10081000CCE7000068000020890000208D00002047
:10082000007002402A220020320200200000002036
:1008300030B5002440F6FF720023294D286820F4CB
:10084000F8102860286820F470602860286A20F07A
:100850001F002862686840F000406860686820F007
:10086000FE406860A5F580750021D5F8000140F0D4
:100870001000C5F80001D5F85001C007FBD0D5F82D
:10088000500140F00100C5F85001286880B20444CE
:10089000904200D20246984200D90346491C4229A0
:1008A000E3D3E01A801A80097F2808D9D5F804011B
:1008B00020F0FE4000F17C50C5F8040105E0D5F8B9
:1008C000041160F31E61C5F8041105F582752868EE
:1008D00020F000402860A86840F00100A86030BD0A
:1008E000007102407047000010B5074A01EB41015A
:1008F000064C535C23541144631D4A781A545A1D04
:100900008978115410BD0000A04A01004A0300205C
:100910000549C879401CC0B2C871042803D9002019
:10092000C8710120087270472E030020064908464E
:100930000A7BC07BFF2A03D0044A105C0871704711
:10094000034A105C087170472E0300205C560100BA
:10095000645601002DE9F04F1D4B00245C706420AB
:10096000588300F03FF8DC705C715C729C709C7482
:100970009C710020174991F800B025E00021164A2B
:10098000174EDFF84CC0125C0CF12B0C02EB420549
:10099000ACF10F08745D2E44104B7578B678FF27C4
:1009A00008F1050908F10A0A23F810200CF8007074
:1009B00008F8004009F800500AF80060491CC9B264
:1009C0000229F1D3401CC0B25845D7D3BDE8F08FFF
:1009D0002E0300205B56010055560100C05D00202B
:1009E0006D5301000B4908460A7B407BFF2A03D068
:1009F000094A105C887302E0084A105C8873488BCF
:100A00008A7B50434FF4C872B0FBF2F00883C8826F
:100A1000704700002E030020755601007D5601002E
:100A20000549088B401E0004000C088303D1C88AC6
:100A300008830120087070472E03002070B5104D08
:100A400000266878012800D06E7101236B70F020B9
:100A50006883FFF7C7FFEB706E72AE70287B0828C3
:100A600008D20024297B2046FFF73EFF641CE4B235
:100A7000052CF7D3287B082800D32E7370BD000007
:100A80002E0300200649054AC87A12F810300B736D
:100A900002EB400040780874704700004D5601009A
:100AA0002E030020F0B50F4D03206870642068838A
:100AB000FFF798FF0020E87068716872A870FF2641
:100AC00005F12B070024297B2046FFF70DFF641C4E
:100AD000E4B2052CF7D33E55641CE0B20528F1D3EF
:100AE000F0BD00002E03002000B50C4B052058700F
:100AF0004FF4C8705883FFF775FF0120D8700021AC
:100B00005971987059720020044A2B321154401CBC
:100B1000C0B20528FAD3197300BD00002E030020CF
:100B2000F0B5134B02205870C8205883FFF75AFFC6
:100B30000021D970597199705972997400200D4D26
:100B400001EB41020A4BA95C1C3315445C1D6A7819
:100B5000661DAD78FF2703F10F0C1954225435544C
:100B60000CF80070401CC0B20528F6D3F0BD0000A0
:100B70002E0300206D5301001C48C17A0A2904D9B4
:100B80004FF4004191F80612C172C17A0B292BD2A1
:100B9000DFE801F0060A080C1014181C20242800B5
:100BA000FFF7D8BEFFF74ABFFFF7BABF00210173B6
:100BB000FFF778BF01210173FFF774BF02210173B2
:100BC000FFF770BF03210173FFF76CBF04210173AE
:100BD000FFF768BF05210173FFF764BF06210173AA
:100BE000FFF760BFFFF780BF704700002E030020B3
:100BF000F0B5DDE9057C00240F4D00262E55641C60
:100C0000E4B2402CFAD355242C70FB246C70A870ED
:100C1000D00BE8702971080A6871AA71100AE8718E
:100C20002B72180A6872AF72380AE87285F80CC025
:100C30004FEA1C206873F0BD8244002070B52E4836
:100C4000002606704FF4184000782C4C207049F6AE
:100C500001000078607049F602000078A07049F643
:100C600003000078E07049F608000078207149F62A
:100C700009000078607149F60A000078A07149F611
:100C80000B000078E0711E480670E179012501290A
:100C900003D0E179022902D002E0057000E005707E
:100CA00021781848802920D0217809B32178491E5D
:100CB00001701548016941F0100101616079134923
:100CC00008701349FF20087006F082F90CF0FAFA58
:100CD000A07910490870104805701048067007F098
:100CE00063FEBDE8704004F0EDBB13210170E0E746
:100CF00014210170DDE700006B030020E8020020F2
:100D0000CC020020B902002000800340C80200206D
:100D1000C2020020CA020020BA020020D70200202E
:100D20000848007800280BD1074855210170FC21A4
:100D30004170052181704022014602200FF04EBD16
:100D400070470000440200203C63002070B4002182
:100D500000202E4C225C1143401CC0B20828F9D35D
:100D60002A4B0125663B002231B19D770020225499
:100D7000401CC0B20828FAD300210120244C265C74
:100D80003143401CC0B21028F9D339B183F8215047
:100D900001202254401CC0B21028FAD300210120A7
:100DA0001A4C2A3C265C3143401CC0B20328F9D3BC
:100DB00031B1DD7701202254401CC0B20328FAD3A0
:100DC00012483238417811B183F820504270002126
:100DD00001200E4CA41F265C3143401CC0B20528E4
:100DE000F9D339B183F8225001202254401CC0B2FB
:100DF0000528FAD300200649AA310A54401CC0B283
:100E00008028FAD39A7270BC0EF0F8BAE60000207F
:100E1000801F0020114801218176032181720F4932
:100E2000407E31222A31012809D0022809D0042825
:100E30000AD008280BD010280CD04A7070474A708E
:100E40007047322048707047332048707047342014
:100E500048707047352048707047000044020020F9
:100E600003493020487001202A39887670470000F5
:100E70006E02002003490120887653202A314870F1
:100E80007047000044020020034901208876512069
:100E90002A314870704700004402002010B5024813
:100EA000FFF776FA10BD000008000020024940F666
:100EB000FF70C86370470000001002402DE9F05F2A
:100EC0000025AF48416E41F001014166AD4C17204D
:100ED0006061206820F001002060122010F005FB06
:100EE0000320606000F062F9A7498A684FF6FF703E
:100EF00002438A6048610020401C1028FCD3002473
:100F00004FF4AF68DFF88492A2460EF007FC9E48CB
:100F1000C0F808A0062C2BD2DFE804F0030A111851
:100F20001E24D9F8140040F48040C9F814001FE0D2
:100F3000D9F8140040F40050C9F8140018E0D9F8AA
:100F4000140040F48050C9F8140011E09048416941
:100F500041F0010141610BE08D48416941F002011E
:100F6000416105E0D9F8140040F40060C9F81400AC
:100F70000020401C2028FCD3DFF818B2DBF8000169
:100F800040F01000CBF80001DBF80C01C007FBD0EB
:100F90000320CBF80C0103F0F7F800F007F97A48CA
:100FA00082684FF6FF710A43826041610020401C55
:100FB0001028FCD3DBF824104FF4FA60814206D2EB
:100FC000DBF82410414502D9E7B200260125DBF801
:100FD0002010814206D2DBF82010414502D9E7B249
:100FE00001260125DBF83C10814206D2DBF83C10DB
:100FF000414502D9E7B202260125DBF838108142CB
:1010000006D2DBF83810414502D9E7B203260125A4
:10101000DBF81C10814206D2DBF81C10414502D9D6
:10102000E7B204260125DBF81810814206D2DBF86E
:101030001810414502D9E7B205260125DBF8141046
:10104000814206D2DBF81410414502D9E7B20626E8
:101050000125DBF81010814206D2DBF81010414563
:1010600002D9E7B207260125DBF80C10814206D22F
:10107000DBF80C10414502D9E7B208260125DBF860
:101080000810814206D2DBF80810414502D9E7B2C8
:1010900009260125DBF80410814206D2DBF8041092
:1010A000414502D9E7B20A260125DBF82810814222
:1010B00006D2DBF82810414502D9E7B20B260125FC
:1010C000DBF83410814206D2DBF83410414502D9F6
:1010D000E7B20C260125DBF83010814206D2DBF89E
:1010E0003010414502D9E7B20D260125DBF82C105E
:1010F000814206D2DBF82C00404502D9E7B20E2629
:10110000012510F0A9F983462348007880B1D9F869
:10111000040040070CD42148007810B920480FF093
:1011200067FD204880F800A000251F4901200870B5
:10113000012D03D01B48408858451AD01648007826
:10114000B8B9184D07EBC6006870DFF850B09BF8CF
:10115000000010B912480FF04BFD85F800A00025E3
:101160001149012008709BF80000022801D1FFF707
:1011700077FE641C072CFFF4C8AEBDE8F09F0000AA
:1011800000F00140087102400090034000700340ED
:1011900000A00340007002406902002044020020C9
:1011A000386F002034020020050000200248002192
:1011B000016041608160704720B2014030B401237A
:1011C000002805D0084A14780443147007480370B7
:1011D000002906D0064803700648017030BC10F0A4
:1011E00063B830BC70470000E60000209E0000207D
:1011F0008D00002089000020002806D0084A1378BE
:1012000083431370074A01201070002906D0064A54
:10121000002010700548017010F046B870470000BB
:10122000E60000209E0000208D00002089000020A4
:1012300010B50948007800280DD1084C617A207A51
:10124000814208D0064A1118105C4978FFF7D4FF94
:10125000207A801C207210BD9E000020FA00002021
:101260005A390020044A034B517A5854491C517290
:10127000704700005A390020FA00002010B50248DB
:10128000FFF7F9F910BD0000201F002010B502483B
:10129000FFF7F1F910BD0000641E002070B54FF09B
:1012A000FF35284610F021F901F0B6FD174C012654
:1012B0004C2010F0FCF8D4F8001211F4805F01D03B
:1012C000012100E000210029F2D14C2010F038F972
:1012D0000F48C07A012801D10E4806704FF48000F3
:1012E00001F02CFA01231A46194618460CF0DAF9D7
:1012F000002001F023FA01F0A7FC284610F0D7F8EF
:101300002846BDE8704010F01BB9000008E000E07E
:10131000386F00203402002072B6FEE710B5044694
:101320004CF2503000F0D8FA002801D101498C6508
:1013300010BD00000010600010B504464CF25030A3
:1013400000F0CAFA002810D108490A6822F0FF020A
:10135000D21D0A600A6822F4407202F580720A60A7
:101360004C600A6C42F001020A6410BD001060007B
:1013700010B504464CF2503000F0AEFA002810D1FF
:1013800008490A6822F0FF0209320A600A6822F45A
:10139000407202F580720A604C600A6C42F00102F1
:1013A0000A6410BD001060002DE9F04106460D46AC
:1013B0004FF4C0073C464CF2503000F08DFA002844
:1013C00022D1002215F8011B04F8011B521CD2B2D5
:1013D000082AF7D30D49012E07D13A68D20702D166
:1013E0003A68920701D50A4A8A600A6822F0FF0229
:1013F000521D0A600A6866F309220A6000224A60E8
:101400000A6C42F001020A64BDE8F081001060003D
:1014100086E98EAB70B506460D464FF4C0044CF21B
:10142000503000F059FA002818D1002215F8011B9D
:1014300004F8011B521CD2B2082AF7D308490A68E3
:1014400022F0FF02521D0A600A6866F309220A6050
:1014500001224A600A6C42F001020A6470BD000079
:10146000001060000022114901EB4021B1F5806FAE
:1014700005D30F4901EB4021B1F5767F02D201225D
:1014800000F003000B490B6823F0FF035B1C0B60AB
:101490000B6862F309230B600A6822F440620A6059
:1014A0004860086C40F00100086470470000C0FF0D
:1014B000D8FBBFFF001060000B490A6822F0FF0252
:1014C000521C0A600A6822F440720A600A6822F418
:1014D000406202F580620A60C0004860086C40F01B
:1014E00001000864704700000010600010B5044659
:1014F0004CF2503000F0F0F9002804D10249896D17
:1015000001F00101217010BD0010600070B50546AA
:101510004CF25036304600F0DFF9002815D10B4C64
:10152000206820F0FF00C01D2060206820F440707B
:101530002060206C40F001002064304600F0CCF9BF
:10154000002802D1E168090C297070BD001060000C
:1015500070B504464CF25035284600F0BDF900281D
:1015600016D10C48016821F0FF01093101600168C2
:1015700021F440710160016C41F0010101642846D1
:1015800000F0AAF9002803D14FF4C00109682160D6
:1015900070BD00000010600010B50022114600F080
:1015A00049F9002010BD10B502460021084600F0A0
:1015B00041F9002010BD10B500220146104600F090
:1015C00039F9002010BD00000A48016821F0FF0130
:1015D000491C0160016821F440710160016841F417
:1015E00040610160002141608160016C41F00101B6
:1015F000016470470010600073B54FF4C00201AB86
:101600000121002404E013F8015B02F8015B641C73
:101610008C42F8D3B0F5002F02D200F06BF80BE04B
:10162000A0F58002B2F5806F04D3064A0244B2F5F9
:10163000767F01D200F0A6F80348016C41F0010169
:1016400001647CBDD8FBBFFF001060007FB54FF484
:10165000C00202AB0821002404E013F8015B02F889
:10166000015B641C8C42F8D3B0F5002F02D200F06D
:1016700041F80BE0A0F58002B2F5806F04D3064A72
:101680000244B2F5767F01D200F07CF80348016C89
:1016900041F0010101647FBDD8FBBFFF0010600075
:1016A00073B54FF4C00201AB0221002404E013F82B
:1016B000015B02F8015B641C8C42F8D3B0F5002F8B
:1016C00002D200F017F80BE0A0F58002B2F5806FAF
:1016D00004D3064A0244B2F5767F01D200F052F8F4
:1016E0000348016C41F0010101647CBDD8FBBFFFE0
:1016F0000010600010B503230B4AB1F5007F10D035
:10170000C0F30804491E41EA44219160116863F363
:1017100007011160116821F440711160400A5060A6
:1017200010BD0223F2E700000010600070B54FF416
:10173000C0024FF40074002304E011F8015B02F8CA
:10174000015B5B1CA342F8D3B0F5002F03D2214606
:10175000FFF7D0FF0CE0A0F58001B1F5806F04D356
:1017600006490144B1F5767F02D2214600F00AF81D
:101770000348016C41F00101016470BDD8FBBFFF5B
:101780000010600030B50324134A4B1E8518134A1D
:10179000B5F5EC7F06D2A8B20821116043EA4020DB
:1017A000506030BDB1F5007F13D0C0F3080143EAAB
:1017B00041219160C0F30A00116864F307011160D0
:1017C000116821F4407101F580711160400A506088
:1017D00030BD0224EEE70000D8FBBFFF0010600020
:1017E00073B54FF4C00201AB0421002404E013F8E8
:1017F000015B02F8015B641C8C42F8D3B0F5002F4A
:1018000002D2FFF777FF0BE0A0F58002B2F5806F00
:1018100004D3064A0244B2F5767F01D2FFF7B2FF45
:101820000348016C41F0010101647CBDD8FBBFFF9E
:10183000001060002DE9F04705460F4690464FF432
:10184000C0044CF25039484600F046F8114E0620CC
:101850003060306C40F001003064484600F03CF8E5
:10186000002815D1B8F1000F03D0F168090EC8F8AF
:10187000001017B1F168090C3970002D08D0002153
:101880002960696014F8012B6A54491C0829F9D3AE
:10189000BDE8F0870010600070B504464CF250358A
:1018A000284600F019F80649042008604C60086CCE
:1018B00040F0010008642846BDE8704000F00CB814
:1018C000001060000248C068024980B2C8617047D9
:1018D00000106000BC65002070B50446124900206D
:1018E000C86100F045FC0546104E09E0601C07D0B9
:1018F00024B100F03DFC401BA04201D9012070BD85
:10190000B06CC007F2D1306DC00702D00120306545
:1019100008E0306D800705D5FFF7D4FF0220306561
:10192000012070BD002070BDBC650020001060006B
:1019300070B500201149124B40F6980240F26C74C9
:1019400031F810502D0403D423F8102021F8104052
:10195000401CC0B28028F3D34FF4807400234FF4AE
:1019600004422146064801F063FE2146BDE870406E
:1019700000234FF40542014801F05ABE3A360020D8
:101980003A3500202DE9F0414FF4007631463248D7
:10199000FEF77FFC00234FF402420C212F4801F098
:1019A00047FE00234FF4184210212B4801F040FE5F
:1019B00000234FF41A423146274801F039FE4FF414
:1019C0003A4700234FF416423146384601F030FEC4
:1019D00000234FF4304231464FF43C4001F028FEE2
:1019E00000234FF4364231461B4801F021FE00230C
:1019F0004FF438423146184801F01AFE00234FF4E4
:101A000032423146144801F013FE00234FF43442B1
:101A10003146114801F00CFE00244FF41C4505EB43
:101A20004422002331460C4801F002FE641CA4B29B
:101A3000092CF4D3324639460948FEF711FC3146E9
:101A40000848FEF726FC4FF480610748FEF721FCAA
:101A5000BDE8F0410DF03CBE824500200080000052
:101A60003A2500203A2700203A29002010B50248E4
:101A700000F012FB10BD00000070034010B50248DA
:101A800000F00AFB10BD00000080034010B50248C2
:101A900000F002FB10BD00000090034010B50248AA
:101AA00000F0FAFA10BD000000A0034010B50021BC
:101AB000094B084A1B8809E002EB41046478844220
:101AC00002D112F8110010BD491CC9B29942F3D3DA
:101AD000002010BD9E3C01008E3D01002DE9F05F0D
:101AE000044694F83D00002804D002202064012020
:101AF000BDE8F09FD4E900104FF4807202EB401271
:101B000001EB02084FF4827202EB401201EB020972
:101B1000A16809B1012200E00022A36BA56A5B0065
:101B200043EA8503656B43EAC503656A43EA4513E7
:101B300043EAC212236B42EA0322236A42EAC32227
:101B4000238B42EA0342A38942EA8352237C42EA7E
:101B5000036AC1F34002C1F30001D20142EA4131FC
:101B6000A28B41EA024194F82C2041EA026B67699A
:101B70008740012505FA00F61A48E0641A482065F6
:101B80001A486065A06D08B91948A065A16D204686
:101B90008847C8F800A0C9F800B02068416A41F041
:101BA000010141622068816AB14381622068816AD3
:101BB00039438162002222640E4B21680E4899420B
:101BC00005D1237901789D402943017004E02379F0
:101BD00041789D402943417010203C346070227050
:101BE000002085E7750600007306000071060000FE
:101BF000591C000000300540B403002070B50446B5
:101C000012492068124D88420CD1286DC00703D0BC
:101C1000286D20F0010028650B200FF03BFC0B2005
:101C20000FF052FC0B49206888420ED1286D8007C6
:101C300003D5286D20F00200286538200FF02AFC1B
:101C4000BDE8704038200FF03FBC70BD003005404B
:101C500000F001400040054070B504461948216875
:101C6000194E1A4D814210D1286DC00707D1286D39
:101C700040F001002865306840F0010030600B2022
:101C80000FF008FC0B200FF041FC11482168814245
:101C900016D1286D800707D4286D40F00200286512
:101CA000306840F00200306038200FF0F3FB07216D
:101CB00038200FF05FFCBDE8704038200FF026BCE4
:101CC00070BD00000030054010F8014000F00140F8
:101CD0000040054090F83C30012B09D0012380F8EA
:101CE0003C3005290FD2DFE801F0090B0D05070094
:101CF00002207047826506E0C26504E0C26402E02B
:101D0000026500E04265002180F83C100020704729
:101D10002DE9F047044689469246984649462046B2
:101D20000FF0C9FD002804D194F83D00102802D01E
:101D30000120BDE8F08794F83C00012836D001204E
:101D400084F83C00202084F83D0000232364C4F87C
:101D50004480D4E900054FF4827101EB4511461827
:101D60004FF4807101EB451147184FF48A7101EB74
:101D7000451101444FF4847202EB451202444FF4C2
:101D8000867C0CEB45152844C1F80080C2F8009011
:101D9000C0F800A0306820F007003060386840F0DC
:101DA0000100386084F83C300020C2E70220C0E720
:101DB000F0B590F83C20012A0ED0012280F83C209A
:101DC000104C114D114A124B124E062915D2DFE864
:101DD00001F0090B0D05070F0220F0BD84650CE032
:101DE000C5650AE0C26408E0036506E0466504E0F4
:101DF0008465C565C26403654665002180F83C10B2
:101E00000020F0BD591C0000FD1B000075060000FD
:101E1000730600007106000010B500F095FA00206E
:101E200010BD70B5044600F0A3F9054600E000BF00
:101E300000F09EF9401BA042F9D370BDFEB50446E8
:101E4000012021780646C9074FF0040527D000205D
:101E50000090019002906169A1F57F40FF3809D0A0
:101E6000C80801F0070101AA06FA01F1135C0B434F
:101E7000135404E0FF22082101A8FEF703FA00959D
:101E800069460120FFF790FA6068012810D001A987
:101E90000020FFF789FA69460120FFF7BBFA217895
:101EA000890713D5207EFF2807D08640009606E0DC
:101EB00001A90020FFF7AEFAEDE70F20009060685F
:101EC000012830D069460120FFF76EFA2178890693
:101ED0000BD5009569460120FFF766FA207FFFF7D2
:101EE000DBFC69460120FFF795FA217849070CD5FC
:101EF000009569460120FFF757FA94F82000FFF794
:101F00001BFA69460120FFF785FA2178090702D5F7
:101F1000606AFFF72DFA2178C90603D594F82800E6
:101F2000FFF7FCF9FEBD69460120FFF773FACDE724
:101F30002DE9F04104460E464CF250373846FFF783
:101F4000CBFC2168032908D01B4A02290CD0E16888
:101F5000926901EB5225E56027E0FFF735FB384633
:101F6000BDE8F041FFF7B8BC6168926901EB12353A
:101F700065600AE02846FFF79FFA3846FFF7ACFC99
:101F800010B13560BDE8F0816D1CD4E90121114428
:101F9000A942EFD8F6E72846FFF764FA3846FFF77C
:101FA0009BFC08B13560EDE76D1CD4E903211144B9
:101FB000A942F0D8E6E70000BC65002010B5044651
:101FC0000D20206004F10C00FFF7E6FA04F1180080
:101FD000FFF7F1FA04F11C00FFF7E5FA04F1200025
:101FE000FFF794FA04F12400FFF7B2FA04F1280095
:101FF000BDE81040FFF77ABA2DE9F0410646884661
:1020000014461D464CF250373846FFF765FC024631
:102010001248806940446AB97EB1012E11D0022E67
:1020200013D0032E15D02146FFF780FB3846FFF76B
:1020300053FC02461046BDE8F081E1B2FFF7DCFA3E
:10204000F4E7A1B2FFF72CFBF0E72146FFF7C8FB4E
:10205000ECE722462B46FFF7F9FAE7E7BC650020DC
:1020600010B5074C2078002808D0064800780028D2
:1020700004D105480EF0BCFD0020207010BD00000A
:102080003402002044020020386F0020826C8A4213
:1020900000D081640020704710B503465C6D986CD9
:1020A000012807D0186B2043186321461846FFF714
:1020B000D7FF10BD00211846FFF7E8FF186B20433B
:1020C000186301211846FFF7E1FFEEE770B51446EB
:1020D00091FAA1F1B1FA81F50FF0A4FCC0B2284445
:1020E0000C4900EB400001EB80000121A140826817
:1020F0000A4201D1012070BD01798C401F228A4023
:102100000368196891431960006821430160002049
:1021100070BD0000A457010010B504462078C00728
:1021200001D0606803E00F480068C0F3421050B16E
:1021300002280AD004280AD04FF6FF7021788907B8
:1021400008D5A1680BE00848F8E70848F6E700F072
:1021500019FCF3E703490839096801F00701C84091
:1021600010BD00000CF80140001BB700405DC60028
:1021700001484068704700007403002001488068EF
:10218000704700007403002010B50446607B2028CF
:1021900001D0002010BD2068C16821F00101C1609C
:1021A000204600F028F8002020616073207310BDE5
:1021B000407B704710B50446607B002803D00220A6
:1021C0002061012010BD20460FF0B8FB08B10120AE
:1021D00010BD204600F010F80120FFF722FE204637
:1021E0000FF0B9FB08B1012010BD002020612020B4
:1021F0006073002010BD70470648816EC90708D182
:10220000016E41F0010101660348016841F00101DE
:102210000160704700F0014014F8014010B5002142
:1022200000220261037B012B0AD001230373437B4D
:10223000202B07D00C21016101210273084610BD3B
:10224000022010BD046845F6B923A360F5E700003D
:1022500002484168027811444160704774030020CD
:1022600010B50F2000F022F800F004F800F06DF82F
:10227000002010BD00B58BB00A48006AC1010A48B1
:1022800003D54FF40051816101E0002181611020EC
:10229000009001208DF828006846FFF7CFFD0BB0B5
:1022A00000BD000000F00140BC6500202DE9F041B8
:1022B00004460DF0ADFA214D4FF47A712878B1FB48
:1022C000F0F01F490968B1FBF0F0401E4FF0000824
:1022D0004FF0FF36B0F1807F01D301200BE04FF0CB
:1022E000E02778610F2130460FF054F9C7F81880C5
:1022F00007203861002010B10120BDE8F081102CCA
:1023000019D210480068C0F30222C2F10700042865
:1023100000D90420111D072901D2002200E0D21E9D
:1023200001218140491E2140914030460FF032F991
:10233000AC600020E1E70120DFE70000740300202B
:10234000F41100200CED00E07047704711F0AAB9BD
:10235000084610F0ADBE000070B50D461748046881
:1023600000231A460421284605F049FE28070ED00E
:1023700005F00F0004EBC0000069026B002A1CD0BE
:10238000617A032919D12946BDE870401047606879
:10239000022812D100202072D4F8680828B1816A7E
:1023A00019B1627A032A00D18847607B002804D1E2
:1023B0002046BDE870400DF0A3BB70BD3004002086
:1023C00070B50D4619480468002600231A460221FC
:1023D000284605F014FE28070ED005F00F0004EB88
:1023E000C0000069426B002A1FD0617A03291CD10A
:1023F0002946BDE8704010476068032815D1802049
:102400002072D4F8680830B1C16A21B1627A032A17
:1024100001D188470646607B002806D1022E04D0F1
:102420002046BDE870400DF095BB70BD3004002023
:1024300070B50C4604F07F0202EB420100EBC105CF
:10244000204610F099FE204611F0BAF8002804D179
:1024500018212846FDF71DFF002070BD10B50C4661
:10246000204610F089FE2046BDE8104010F05EBE08
:1024700001F07F0101EB410100EBC10040697047B1
:10248000084610F0B7BE2DE9F0410E4617469846B3
:1024900006F07F0505EB450100EBC104E07800285C
:1024A00002D00220BDE8F08118212046FDF7F1FEA0
:1024B000F0096070C7F3C1222570C7F30A00A0605D
:1024C00084F804803B4641463046BDE8F04110F0B8
:1024D000CBBE70B50446154608461A4600F07F018B
:1024E00001EB410104EBC104E178002901D0022095
:1024F00070BD1AB10121E170E560226100266661BC
:102500002179012903D1A168914200D20A462946C6
:1025100010F03EFF0028EBD0E67070BD70B50246AB
:102520000D4605F07F0000EB400002EBC00428469A
:1025300010F022FE2079012801D1002020612846D8
:10254000BDE8704010F088BF70B5044615460846D7
:102550001A4600F07F0101EB410104EBC104E17870
:10256000002901D0022070BD1AB10121E170E5609F
:102570002261002666612179012903D1A168914277
:1025800000D20A46294610F099FF0028EBD0E670E9
:1025900070BD084611F032B810B505480468002334
:1025A0001A460421FF2005F02AFD0020607010BDAE
:1025B0003004002010B50446002C10D0DC21204649
:1025C000FDF767FE07480460204600F00DF811F0A3
:1025D00027F8002804D1BDE8104010F099BD012073
:1025E00010BD0000B003002010B50B48016841F099
:1025F000800101600948016E41F480510166016D5E
:1026000041F40071016500214D200EF0B3FFBDE8DB
:1026100010404D200EF07ABFECFB014000F001406D
:1026200010B50748046800231A460321FF2005F06F
:10263000E6FC20460EF0E2FA0120607010BD0000BA
:102640003004002010B50648046800231A46022111
:10265000FF2005F0D4FC2046BDE810400EF010BB72
:1026600030040020084611F027B8000070B5054678
:1026700014480468012255F8D83F1146002005F09F
:10268000BEFC28680168C4F858184068C4F85C08A3
:102690000020607394F85E0894F85F18084305D032
:1026A00094F8580800F08000207204E094F858185C
:1026B00080208843207204F658012046BDE870400F
:1026C0000EF0FCBB3004002010F008BD10B5064829
:1026D000046800231A460121FF2005F090FC2046E3
:1026E000BDE810400EF09ABD30040020084610F0FE
:1026F000E9BF0000014900200862704700F0014076
:102700000D484FF0FF710160816A41F00401816260
:10271000016A41F00401016230BF816A490703D5B3
:10272000816A21F004018162D0F8281121F48051DE
:10273000C0F828117047000000F0014030F0FF7130
:1027400001D00120704705494A6822F0FF724A60B3
:102750004A6802434A6000207047000000F00140D0
:102760002DE9F0478CB004462C22534901A8FDF70F
:1027700077FD002704B3514E306A40F0805030623C
:1027800020784FF00808800721D02046FFF7C4FCCE
:102790004B49B0FBF1F501A8FFF710FC0A98A842DD
:1027A00014D2CDF804800A9501A8FFF747FB28B1A1
:1027B00001200CB0BDE8F0870120FAE701A8FFF77F
:1027C000FDFB0A98A84202D00120F2E701272078F9
:1027D000C00716D0606818B93A49096889070AD550
:1027E000022803D138490968C90604D5042804D150
:1027F000316B890701D40120DBE7316B60F34711AE
:102800003163DFF8C090A9F10409D9F800002F491D
:10281000084321688A0703D520F00702A068104307
:102820004A0704D520F03800E26840EAC2000907F0
:1028300004D520F4E070216940EA8110C9F8000055
:102840000CF012FD2078C00715D0FFF791FC06466A
:10285000DFF870A00AF1040A06E0FFF789FC801B8C
:10286000642801D90320A4E7DAF800006168C0F306
:1028700042108842F1D187B1CDF804800A9501A8B1
:10288000FFF7DCFA08B1012093E701A8FFF796FBF8
:102890000A98A84201D001208BE700F09BF8D9F8F4
:1028A000001001F00701C84009490860FFF766FC05
:1028B000FFF7FCFC00207CE75057010000F00140CE
:1028C00040420F0008F801400CB101400000FA5AE4
:1028D000F411002000B500F021F803490968C1F3A4
:1028E0008211C84000BD000004F801400F210160C2
:1028F00009490968C1F342114160074908390A686A
:1029000002F0070282600A68C2F3C202C26009686C
:10291000C1F38211016170470CF8014000B500F06D
:1029200059F80349096801F00701C84000BD0000DB
:1029300004F801400721016010490A68C2F300123F
:10294000C2608968C1F3800181600D49096801F0A6
:10295000010141600A49091D0A6802F00102026191
:102960000A68C2F3001242610A68C2F30662826119
:102970000968C1F30121C1617047000008B101403D
:1029800008F801404FF0FF300F4B1968C90601D419
:102990000E4900E00E491A68C2F306624A431968FC
:1029A000C1F3012131B1012906D0022906D0032942
:1029B00007D105E0202004E0102002E0082000E01C
:1029C0000420B2FBF0F070470CF80140001BB70088
:1029D000405DC600002008490968C1F34211002982
:1029E00005D0022905D0042902D1FFF7CBBF034847
:1029F00070470348704700000CF80140001BB70007
:102A0000405DC6002DE9F0410446002C2BD0207813
:102A1000DFF8C481714D80074AD5E06830B3704E4D
:102A2000012211033046FFF751FB012251033046CA
:102A3000FFF74CFBD5F8080120F04000C5F808016D
:102A4000D5F8DC0320F030001030C5F8DC03D5F8F1
:102A5000080140F01000C5F80801FFF789FB0646A1
:102A60004FF4C87720E00120BDE8F081D8F80000DD
:102A7000C00703D0D8F80000C0060CD4D8F8000076
:102A8000C0F34210022806D0D5F8080120F010004B
:102A9000C5F808010CE00120E6E7FFF769FB801BA1
:102AA000B84201D90320DFE7D5F80C01C006F4D500
:102AB0002078400729D5484E6068361F38B1306805
:102AC00040F001003060FFF753FB07461AE0D8F8EA
:102AD0000000C00703D0D8F80000C00609D5D8F818
:102AE000000010F0E00F04D0306820F001003060EA
:102AF0000BE00120B8E7FFF73BFBC01B642801D9BE
:102B00000320B1E730688007F5D52078C00727D0CB
:102B1000A06878B1D5F8100120F00800C5F81001C0
:102B2000D5F8100140F00400C5F81001FFF720FBB4
:102B3000064611E005F58875286840F00800286011
:102B4000286820F0040028600AE0FFF711FB801BD2
:102B5000C82801D9032087E7D5F81001C006F4D5AD
:102B6000204D2069E0B1217D286B61F304102863BA
:102B7000217F286B61F309202863217E286B61F394
:102B80001E602863286B40F001002863286A20F04B
:102B9000805028620CF068FBFFF7EAFA044615E063
:102BA000D8F80000C0F34210042806D0286B20F0AB
:102BB000010028630CF058FB0BE0012054E7FFF7FD
:102BC000D7FA001B642801D903204DE7286B800742
:102BD000F5D5002048E700000CF8014000B00140A6
:102BE00000A0034000F0014010B5144803218163A8
:102BF00001630162012484645F200EF058FC5F20B1
:102C00000EF09EFC0E484FF4845181630162016313
:102C100084645E200EF04BFC5E200EF091FC0948AF
:102C2000210281630163016284645C200EF03FFC39
:102C3000BDE810405C200EF083BC00000070034033
:102C40000080034000A003404FF0E020016941F004
:102C500002010161704770B50446202084F84500E8
:102C60000120A06420680025856084F84550204636
:102C700000F05CF8606D48B185640021606DFFF77D
:102C800097F80121606DFFF793F86565A06D48B175
:102C900085640021A06DFFF78BF80121A06DFFF77F
:102CA00087F8A56584F84450002070BD10B504462F
:102CB0000020E06494F8451084F84400204600F0B9
:102CC00057F8606D50B18464144A0021606DFFF7BD
:102CD00001F8134A0121606DFEF7FCFFA06D50B1B1
:102CE0008464104A0021A06DFEF7F4FF0E4A012112
:102CF000A06DFEF7EFFF20460EF026FFE064E06CCB
:102D000008B1012010BD2068816841F00101816097
:102D1000102084F84500002010BD0000E11D0100D6
:102D2000F31D0100251B0100371B010010B50068D1
:102D30000C49884215D10C48416E490703D5416EB4
:102D400021F00401416624200EF0A4FB24200EF0A3
:102D5000BBFBBDE8104000224FF400410348FFF7E1
:102D6000B5B910BD00B0024000F001400080034042
:102D700010B500680F4988421BD1022291030E480A
:102D8000FFF7A4F90D48416E490708D4416E41F0A0
:102D9000040141660A48016841F0040101602420F1
:102DA0000EF078FB24200EF0B1FB0749054848657A
:102DB000816410BD00B002400080034000F001407B
:102DC00018F80140641E0020C41E002038B50446D7
:102DD00094F84500C00601D4012038BD94F84500A0
:102DE000C043800601D4022038BD94F84400012875
:102DF00010D0012084F84400212084F845000025EB
:102E0000E56413460022204600950EF035FE84F856
:102E1000445038BD022038BD4FF0E020016921F058
:102E2000020101617047704770470022C2628269E7
:102E30004800032181400A40C2409007800E70473D
:102E400070B504462A4D94F83000285C410703D43D
:102E5000E16809B1012070BD000703D4A06808B182
:102E6000012070BD207C18B10220E062012070BDFD
:102E700094F82900012838D0012084F82900204640
:102E800000F038F8202020742068016841F0020129
:102E9000016094F83000285C400704D5E26820689F
:102EA00041EA0211016094F83000285C00070BD55C
:102EB0002068A268016911430161A06820B12068FF
:102EC000816A41F008018162D4E900108860002520
:102ED000E5621020207420460FF0B0F90F206061E9
:102EE000E56284F82950002070BD022070BD00000A
:102EF000B25B010070B5044613482168134E144DAF
:102F0000814210D1686E800507D4686E40F400706D
:102F10006866306840F40070306018200EF0BAFA2D
:102F200018200EF0F3FA0B48216881420AD1686E2E
:102F3000400507D4686E40F480606866306840F4ED
:102F40008060306070BD00000000024018F8014051
:102F500000F00140001002402DE9F04105460E4608
:102F600014460027EF62287C102802D00120BDE81B
:102F7000F08195F8300000EB800101EBC00234498C
:102F800001EB420131F814108A070BD0304AEA32C3
:102F9000105C000708D53068012805D0A86818B172
:102FA0000120E4E70120E2E73068012803D0880728
:102FB00001D40120DBE795F82900012816D04FF055
:102FC000010885F829802246314628460EF0A2FBEA
:102FD0003268E0080F26A4F1080105EB8000012A01
:102FE00007D0C269082C1BD223461AE04FF002001A
:102FF000BDE7C269082C01D2234600E00B464FEA28
:10300000830306FA03F622EA0602C26100D22146D1
:103010004FEA810108FA01F842EA0802C26112E0AF
:103020000B464FEA830306FA03F622EA0602C26160
:1030300000D221464FEA81034FF0020101FA03F169
:1030400042EA0102C26185F829704FF000008EE764
:10305000C85A01002DE9F041374C6078401CC0B2DD
:103060006070A178491CA170E178491CE170217958
:10307000491C21716179491C6171A179491CA171B7
:10308000E189491CE1812D4E0025022808D10AF072
:10309000A1FE65703078062800D008B90FF098FDC1
:1030A000A078052805D1A5703078052801D10FF04A
:1030B0008FFDE0780A280BD1E57003F077FE03F06E
:1030C00091FF0EF0DDF93078042801D10FF080FD7A
:1030D00020790127142817D1257127720122802118
:1030E0001748FDF7CFF80BF01DFA0BF029FEFDF79E
:1030F0000FFCFDF795FC0EF09DF90FF091FA30787A
:10310000032801D10FF006FD6079282806D16571EA
:1031100067723078022801D10FF0FCFCE089B0F52D
:10312000FA6F07D110F0F8FAE581A772BDE8F04117
:1031300001F030B9BDE8F0816C0000207003002080
:10314000DA38002001220EF0ADBE0EF07DBF7047D0
:10315000BFF34F8F05480168054A01F4E061114350
:103160000160BFF34F8F00BFFDE700000CED00E0F2
:103170000400FA0510B50CF0D1FA5E485C49816094
:1031800081615D48416E41F0010141665B48016823
:1031900021F4E07140310160594C206840F0010099
:1031A000206064200EF078F80520E061606820F06F
:1031B00000406060606820F4405000F5805060601E
:1031C000A4F580744F48017819B901210170FDF709
:1031D0002FFB04F58074206820F4F81000F58010AF
:1031E0002060206820F4706000F580702060206A04
:1031F00020F01F000A302062206A20F4F85000F509
:1032000030602062206A20F4F81000F5102020625F
:10321000206A20F0F85000F100602062606A20F01F
:103220001F000F306062606A20F4F85000F56060A3
:103230006062606A20F4F81000F5E0206062606A65
:1032400020F0F85000F1C0606062A06A20F01F001A
:10325000401DA062A06A20F4F85000F58060A062D2
:10326000A06A20F4F81000F54030A062A06A20F0B7
:10327000F85000F10070A062E06A20F01F00401CCE
:10328000E062E06A20F4F850E062E06A20F4F810AE
:1032900000F55020E062E06A20F0F85000F1406054
:1032A000E062206B20F01F0010302063206B20F4C0
:1032B000F85000F588502063A06840F00100A0603D
:1032C00012200EF030F9A06840F00100A0600E4915
:1032D0003020087012200EF026F900F055FF0B4840
:1032E000007802F053F9206840F01000206010BD13
:1032F0000000FFFF0090034000F0014004F801408F
:10330000007102406400002012E400E0320200205C
:10331000F8B5434D95F82D0000287DD005F17006D5
:103320003068401C30607168884278D305F15807D6
:10333000E96D388811F8202001EB800041780024E5
:10334000346002EB01217160C1788DF80010807843
:103350008DF8010000220B0600D5012201F070015A
:103360008DF800102E4B4FF0010C6033102904D063
:10337000202913D0302913D01BE085F822C0012169
:103380005C54491C89B20529FAD31AB15978014312
:1033900059700EE05978814359700AE0187108E0BD
:1033A00068726C730AB185F80DC000F053F80DF027
:1033B0007BFF3888401C80B23880798888422ED3C1
:1033C00095F82B0010B1012806D014E085F82D40A7
:1033D000BDE8F84000F026B8114936310878401CA5
:1033E000C0B208704978884205D385F82D40BDE801
:1033F000F84000F017B895F82A00800000F510405A
:10340000D0F8000C00F51C4034600A2171603C804B
:1034100030F8041B490800E001E07980E865F8BD58
:10342000800000202DE9F0410024084D084E0027BF
:10343000285D20B1707277732F550DF035FF641C35
:10344000E4B2802CF4D3BDE8F0810000AA21002072
:103450008000002030B500210C4B00240C4A5D7B1D
:10346000012D08D1D9785054491CC8B2D870802891
:1034700000D3DC7030BD535C834201D1545430BD65
:10348000491CC9B28029F6D330BD0000800000205D
:10349000AA210020704700000448816841F0100113
:1034A0008160416941F01001416170470080034033
:1034B0000448816841F010018160016941F0100108
:1034C000016170470080034070B5154C002594F8E9
:1034D0003000012801D0257170BD94F82F0000281C
:1034E000FAD0401EC0B284F82F000028F4D10C4856
:1034F00021793F30405C20B16072012060730DF093
:10350000D3FE2079401CC0B220710A2184F82F100C
:103510000228E1D9257184F8305084F82F5070BD0D
:103520008000002070B50D4D288F002815D0401E5A
:1035300080B22887002810D105F13F0420786872F6
:1035400000266E730DF0B0FE26706078002804D05F
:1035500068726E730DF0A8FE667070BD800000206A
:1035600002494FF4FA70088770470000800000207D
:10357000F0B52349214D234C09786427247B35F885
:10358000112005F580734FF4967C002A08D00026A0
:10359000824213D17CB123F811C04FF00000F0BD7E
:1035A00025F8110024B123F811C04FF00100F0BD3F
:1035B00023F81170F9E723F81170EEE707D8A0EBB4
:1035C00002040A2C03DB25F811600120F0BD8242C1
:1035D00006D3101A0A2803DB25F811600120F0BD7C
:1035E00033F81100401E80B223F8110008B100200A
:1035F000F0BD25F811600120F0BD000082420020DE
:1036000088000020FA00002010B5074B074A33F865
:103610001010528AC1F30E04944204D301F4004105
:10362000114323F8101010BD3A360020FA00002094
:103630002DE9F04786B081460F46154600260096D4
:103640003946284600F072F800282CD03448FEF79E
:10365000E5FDE819401E6C0A420A6402281B52026A
:10366000304D4FF40071944220D11FFA80F80020B1
:10367000225C2A54401C80B28842F9D30196600A29
:10368000049001200590694601A8FEF751FC05EB66
:1036900008003A464946FCF7E3FD2A460023214646
:1036A0000420FEF7A9FC06B0BDE8F0871FFA80F8F9
:1036B0000020225C2A54401C80B28842F9D30020AA
:1036C000DFF864A0221892F800220AF80020401CBB
:1036D00080B28842F6D30196600A049002200590D9
:1036E000694601A8FEF724FCC8F50072164605EBF2
:1036F00008004946FCF7B4FDBA1B09F102010A486B
:10370000FCF7AEFD2A46002321460420FEF774FC98
:103710005246002304F500710420FEF76DFCC2E759
:103720005000002079590020795B002001444FF4BB
:103730000242012070470000892800D200E0A0E189
:10374000810000BF794449688F44000036030000BF
:1037500024020000280200002C02000030020000B9
:1037600034020000380200003C0200004002000069
:1037700044020000480200004C0200005002000019
:1037800054020000580200005C02000060020000C9
:1037900064020000680200006C0200007002000079
:1037A00074020000780200007C0200008002000029
:1037B00084020000880200008C02000090020000D9
:1037C0009402000098020000360300009C020000F2
:1037D000A00200003603000036030000360300009C
:1037E0003603000036030000A40200003603000088
:1037F000A8020000AC020000B0020000B402000009
:1038000036030000B8020000360300003603000053
:10381000BC02000036030000C0020000C402000029
:10382000C802000036030000360300003603000023
:1038300036030000CC020000D0020000D4020000D9
:10384000D8020000DC020000E002000036030000A5
:103850003603000036030000360300003603000084
:103860003603000036030000EC020000F202000004
:1038700036030000E4020000E80200003603000006
:103880003603000016030000360300002603000084
:103890002A03000036030000360300000203000084
:1038A0000803000036030000320300001E0300007E
:1038B0000E030000360300002E0300003603000054
:1038C0003603000036030000360300003603000014
:1038D00012030000F8020000FE02000036030000A0
:1038E0001A03000036030000360300003603000010
:1038F00036030000360300003603000036030000E4
:1039000036030000360300003603000036030000D3
:1039100036030000360300003603000036030000C3
:1039200036030000360300003603000036030000B3
:1039300036030000360300003603000036030000A3
:103940003603000036030000360300003603000093
:103950003603000036030000360300003603000083
:103960003603000036030000360300002203000087
:1039700003F008B802F0F2BB02F02CBC02F066BC07
:1039800003F01AB802F0F0BA02F0CEBB03F00EB9A1
:1039900002F008BF02F0AEBB02F046BE02F048BD26
:1039A00002F016BD02F078BD02F0DEBD02F00CBEE2
:1039B00002F0C4BD02F0F2BA03F0A6B803F00EB9EB
:1039C00003F0BAB803F0D4B802F06ABB02F026BB29
:1039D00002F00ABB02F04ABB02F084BF02F068BFEB
:1039E00002F040BF02F070BC02F086BD02F0A4BA43
:1039F00002F09ABC03F028B803F028B803F029B805
:103A000003F026B803F04EB802F0DCBA02F00CBEA8
:103A100002F054BE03F060B802F06EBC03F01AB8B6
:103A200003F013B802F004BF03F011B802F084BD34
:103A300002F01ABBFFF72EBD012002F07BBF02206F
:103A400002F078BF032002F075BF02F06FBC0020C7
:103A500002F0BDBC012002F0BABC02F0B7BC02F01B
:103A600061BB02F049BD02F045BA03F01DB802F097
:103A700081BE02F05FBE02F0EFBF02F0BBBE02F0FB
:103A8000C9BF70470148807B70470000FA000020E2
:103A900070B5054600242846214600F005F8641C50
:103AA000E4B2102CF7D370BD2DE9F04F87B000EBD6
:103AB000C102D2B2FE4D2A70FE4FD3083B70DFF830
:103AC000F88302F0070388F80030FC4B03EB40104A
:103AD00030F81100FA498C5CFA4E7D2C7ED04FF400
:103AE0007A71DFF8E493884202D2A9F8121011E04B
:103AF000F64A00EE100A04EB440102EBC101B8EEF5
:103B0000400A084603F086F8BCEEC00A10EE100A20
:103B1000A9F81200EC48EE4A418AE548007822F8FC
:103B20001010A2F5B45212F824200392E94D327815
:103B300040F6980AA5F580790692BAB335F81020B8
:103B400005F5247E12040FD43B78DFF88CC398F877
:103B500000B01EF803201CF80BC012EA0C0F03D1B2
:103B600042EA0C020EF803203B78DFF86CC398F8A9
:103B700000B01EF803201CF80BC012EA0C0F0FD186
:103B800039F810B0ABF1640B8B4509DD29F810A0B2
:103B900040F26C7B25F810B042EA0C020EF80320CC
:103BA00039F810208A4202D229F810100AE035F8BC
:103BB0001020C2F30E038B4204D302F400420A43E6
:103BC00025F81020DFF800B39BF80D1049B10699D5
:103BD000012906D0C149097819B100E034E2FFF7A4
:103BE00013FDB349B84B08785B8A39F810200A3ABC
:103BF0009A422ADABA4A3B7898F800C0D35CB64AAF
:103C000012F80C20134220D13278012A1DD0039AD9
:103C10000C2A1AD0AC4E7179884213D10820308218
:103C2000B048007800280DD022200021CDE90010F6
:103C3000A7482A8AB9F81010038A2046FCF7D8FF53
:103C40000120F07107B0BDE8F08FA74A12F83420C8
:103C500002B90122A54B13F804C0944506D01A55A9
:103C600029F810A040F26C7325F810304FF4A57AB3
:103C700040F28F134FF4AA7C082A16D2DFE802F034
:103C800015040B0D0F080612994A0FE0994A0DE032
:103C9000E246994A0AE0994A08E0994A06E0E24673
:103CA000984A03E0E246984A00E0924ADFF830B2D0
:103CB0000BF1600B3BF810C0BCF1000F03D139F8D9
:103CC00010C02BF810C0DFF808C23BF810103CF809
:103CD00010C08C4502D9ACEB010101E0A1EB0C0155
:103CE00089B2DFF828E23EF810E012F80EE08E45C7
:103CF00001D803290BD203990C2908D03178012966
:103D00002DD17A498031095D01299BD027E02BF81C
:103D100010C039F81010DFF8F8B10839ABF800100E
:103D200001211AE0DFF8E8E1A1F1010B3EF81BB038
:103D300002EB010E1EF801ECABEB0E0BDFF8D0E14D
:103D40001FFA8BFB2EF811B0DC4504D9AEF53862B2
:103D500022F8101003E0491C89B29942E2D36D4B5E
:103D6000DFF84CC1AAF11E0233F81010914207DDB2
:103D700032782AB135F8102042F4004225F810209C
:103D8000654A514501D222F810A032F810B05945C9
:103D900006D322F81010DFF884B101220BF80020BE
:103DA000E3460846FFF7E4FB40B15A499BF80000A0
:103DB00031F81020554921F8102006E053499BF8AE
:103DC000000031F8102021F810209BF800004F4926
:103DD000DFF8F4B031F81010BBF81030994201D37D
:103DE0008BF805004B4931F810108E46C8290ED9C2
:103DF0004B4A39780591384B525C98F800105B5C5F
:103E00001A4204D196F800C0BCF1000F12D0BEF1E6
:103E1000C80F42D2424A397804912F4B525C98F82D
:103E200000105B5C1A4238D096F800C0BCF1000F5D
:103E300019D032E0DFF8E8C01A436346DDF814C059
:103E400003F80C20204A1432535C5B1C53549BF83B
:103E50000610491CC9B28BF8061001291DD9012191
:103E60008BF80B1019E0DFF8B8C09A436346DDF811
:103E700010C003F80C20144B14335A5C0AB1521EC4
:103E80005A549BF8061011B1491E8BF806109BF886
:103E9000061011B900218BF80B10BBF8122040F26C
:103EA0006C718A424AD29BF80D10D9B331783AE04E
:103EB0008800002087000020860000202A220020A1
:103EC000903A01006C030020FA000020001200204C
:103ED000BA3B00203A360020203C0100B802002006
:103EE0005A3A00206D0300203A290020DA400020D1
:103EF0008A3E0100FA41010042400100E443010012
:103F00009C450100544701000C4901003A3400204F
:103F1000BA3C00203A310020DA3F0020F241002074
:103F20000A2400200AE049B939784E4A4E4F98F8E1
:103F300000C0535C17F80C703B4353544B4F9BF835
:103F4000052037F81210ABF81010DFF8248198F82C
:103F50000030ABB10A2913D9904211D12222CDE908
:103F600000E207F5F06135F8102031F8103039F82B
:103F700010102046FCF73CFE01208BF8070015E0EE
:103F8000A3B1904212D10A2910D822210022CDE9F2
:103F90000021384935F8102031F8103039F8101068
:103FA0002046FCF725FE01208BF807009BF8051042
:103FB00037F81100ABF810000A281DD92E4B1A78DB
:103FC0008A4219D1514601F00DFE98F8000098B1CF
:103FD0002A4A1878222132F81020CDE900212549FB
:103FE00035F8102031F8103039F810102046FCF761
:103FF000FFFD01208BF807003078D0B19BF8070057
:10400000B8B91F48005DA0B91B481C49222200789E
:1040100031F81010CDE90012164935F8102031F8AA
:10402000103039F810102046FCF7E2FD01208BF823
:1040300007009BF80A00542806D180211048FCF79D
:1040400028F900208BF80A00307800287FF4FAADB8
:104050000C48007800283FF4F5AD07B0BDE8F04FFC
:1040600000F0CCB972420020203C01003A3400201C
:104070006D030020BA3B0020880000203A31002068
:104080005A410020B802002030B505460123002225
:1040900000201D4203D0521CD2B28A4206D05B06D9
:1040A0001B0E401CC0B20828F3D3012030BD000015
:1040B00030B40E490020887108700D4B01241A5C41
:1040C0002AB18D7904FA00F22A438A7106E00628A3
:1040D00004D20D7804FA00F22A430A70401CC0B2E0
:1040E0000828ECD330BC00F005B800000000002028
:1040F0000E01002070B50C4A0020D07150709579E7
:104100001378012606FA00F1294202D0D479641C02
:10411000D471194202D05178491C5170401CC0B270
:104120000828EFD370BD00000000002010B5124A2F
:10413000002090606FF030019161411ED1610F4A03
:10414000082393606FF020039361D1610C4A906063
:104150000B049361D1610B4988606FF40070886132
:10416000C86103F047F900F00FF8FFF795F9BDE8D3
:104170001040FFF79DB9000000700340008003402D
:104180000090034000A0034010B50C4B986840F429
:10419000784098600A48816881600A498A688A6024
:1041A000094A946844F0030494604FF478441C6115
:1041B000002303610B610320106110BD00700340F8
:1041C000008003400090034000A003402DE9F05F11
:1041D0000BF07EFB0BF0B0FA0EF0F8FEFFF7A6FF37
:1041E00001F08AFC09F0C2FDC820FDF71AFE01F0BB
:1041F00059FE01F06BFE0024DFF8D490354DDFF856
:10420000D8A0DFF8D8B0364E364FDFF8DC8004EBAC
:10421000440009EBC00002F021FDE00000F5304051
:1042200090F800162955295D09B901212955610029
:1042300001F50041B1F800242AF81420B1F8001566
:104240002BF81410A1000A4601F5104191F8003630
:1042500006F8243091F801C606EB840383F801C008
:1042600091F802C683F802C091F80316D97002F5DE
:104270003042117807F82410517807EB8403597005
:1042800091789970D178D97000F5C060017808F8FC
:104290003410427808EBC4014A7082788A70C27880
:1042A000CA7002790A7142794A7182798A71C07939
:1042B000C871641CE4B2802CA9D348F20D200078A8
:1042C0000A4908700BF074F9BDE8F05F0BF000BA12
:1042D00000120020DA4000203A3500203A36002053
:1042E0003A2500203A2700203A290020A800002083
:1042F000FFF7D2B870B5CA7802EB82025200104CB8
:10430000104B657B012D10D033F8105000227DB189
:1043100023F8102088786072012060730CF0C4FFCD
:10432000607ABDE8704000F057B823F8102070BDE7
:10433000487860726273BDE870400CF0B5BF000051
:1043400080000020AA2000202DE9F04100240F4D1C
:104350000F4E012735F8140088B1401E80B225F8B1
:10436000140060B9A00000F5104090F8001609296B
:1043700005D190F80106707277730CF095FF641CFC
:10438000E4B2802CE6D3BDE8F0810000AA20002032
:10439000800000202DE9F0410D4CA07F002815D1B0
:1043A0000C4E002706F17F050CE0017821B1617207
:1043B000077067730CF078FFE06C401CE064A84263
:1043C00000D9E664616CE06C8842EED1BDE8F08112
:1043D00080000020901F0020054A516C01F8010B5D
:1043E00051640448814201D97F385064704700000D
:1043F000800000200F200020704700002DE9F04FC2
:1044000093B00024FE48FF490278D0080870FE49A6
:1044100002F007030B70FD4911F802A0FC4981F876
:1044200000A0CDF848A0FB498F5CBAF1000F7DD009
:104430007D2F7BD0F84911F82760ADF8106001EBB3
:1044400087014E78ADF812608E78ADF81460C978A7
:10445000ADF81610F14901EBC7018E7891F803C051
:1044600006EB0C26ADF818600E7991F805C006EB46
:104470000C26ADF81A608E7991F807C006EB0C2671
:10448000ADF81C6049780091E549096841B1C8213F
:10449000ADF818100021ADF81A10ADF81C100091FD
:1044A000E04991F800C0BDF8181011B99621ADF897
:1044B0001810DD494FF4A5764FF0140B31F81210A7
:1044C000B1420DD3BDF81A506D1E132D01D2ADF8B7
:1044D0001AB0BDF81C506D1E132D01D2ADF81CB0E2
:1044E00079B9BDF81A506D1E092D02D20A25ADF812
:1044F0001A50BDF81C506D1E092D02D20A25ADF8C8
:104500001C50CA4DED7A7DB1BDF81A504FF0060827
:104510006D1E052D01D2ADF81A80BDF81C506D1E20
:10452000052D01D2ADF81C80C14D00E02AE12D78A7
:104530007DB1B1420DD3BDF81A60AE4202D20EB1C8
:10454000ADF81A50BDF81C60AE4202D20EB1ADF803
:104550001C50BDF81060DFF8DC92DFF8DC82B74D4C
:1045600026B9BDF818E0BEF1000F02D0082E24D005
:1045700026E096290FD318F80020EF5C3A420AD1C2
:10458000A34981F800A0012189F800103A4308F8F6
:104590000020012473E19629FCD818F80010EA5C89
:1045A0001142F7D09A4B83F800A0002389F800301D
:1045B000914308F80010012461E1BCF1000F5ED0C6
:1045C0000C2EE7D01E291FD2DFF86CA20AF1100AC8
:1045D0001AF800B015F803A05BEA0A0E07D0DFF85E
:1045E00058E22BEA0A0B0EF1100E0EF800B0DFF8BD
:1045F00050B21BF800B05BEA0A0E05D0DFF840E2CB
:104600002BEA0A0B0EF800B0BDF818A0DFF834B2A0
:10461000CDF824A051459BF800B0CDF820B07DD353
:10462000DDF820A05145FAD31E29F8D318F800B0C0
:1046300015F803A01BEA0A0F70D1DFF804E21EF898
:1046400000E01EEA0A0FF7D14BEA0A0B08F800B0A7
:104650000124A34689F800B07B4F27F81210BDF85B
:104660001A703FB1744F103717F8009049EA0A09E1
:1046700007F80090DFF8B49189F800B06BE3734A53
:104680001278002A7ED1BDF81220120102F53242C2
:10469000177807EB87074FEA4708ADF81880577877
:1046A00007EB87077F00ADF81A7092F802C00CEB99
:1046B0008C0C4FEA4C0CADF81CC092F8039009EB3F
:1046C00089094FEA4909ADF81E9092F804908DF8D7
:1046D000049092F805908DF8059092F806908DF868
:1046E000069092F807908DF8079092F808908DF850
:1046F000089092F809908DF8099092F80A908DF838
:104700000A9092F80B908DF80B9092F80C908DF81F
:104710000C9092F80D908DF80D9000E0FCE292F86C
:104720000E908DF80E90D27B8DF80F20B8F10A0F05
:1047300008D8ADF818B0ADF81EB0142F00D828274F
:10474000ADF81A70BDF81A20944503D3A2F10A07F8
:10475000ADF81C70BDF81870DFF8DC90B94209F1B3
:1047600030094CD919F8007015F803C017EA0C0F7E
:1047700045D147EA0C0709F800709DF80C5015F078
:10478000110F00E0D2E311D09DF804709DF80510E0
:104790003846FCF713FD9DF80C10C90706D03846C3
:1047A000FCF760FD9DF80500FCF75CFD15F0220F9D
:1047B00011D09DF806709DF807103846FCF7FEFCF6
:1047C0009DF80C10890706D53846FCF74BFD9DF87F
:1047D0000700FCF747FD15F0440F3BD09DF808702B
:1047E0009DF809103846FCF7E9FC9DF80C104907C4
:1047F00030D53846FCF736FD9DF8090028E03FE04B
:10480000880000208700002086000020383B01003F
:1048100089000020903A01003A2500203A29002022
:104820003C0200208C0000203A340020FA000020D6
:10483000720300208D0000205A3A0020203C010025
:10484000BA380020710300203A3200209E00002078
:10485000FCF708FD15F0880F11D09DF80A509DF85F
:104860000B102846FCF7AAFC9DF80C10090706D58A
:104870002846FCF7F7FC9DF80B00FCF7F3FC45E33A
:10488000DFF878849142A8F110077DD317F800C0B3
:10489000EA5CDFF86CB41CEA020F75D1DE4619F849
:1048A00000A0DFF860B41AEA020F6DD04CEA020CE7
:1048B000F146DA4607F800C09DF80C50E80605D529
:1048C0009DF805109DF80400FCF796FC9DF80D700E
:1048D00017F0110F11D09DF804B09DF8051058463F
:1048E000FCF76CFC9DF80D00C00706D05846FCF79D
:1048F000B9FC9DF80500FCF7B5FC9DF80EB05FEA29
:10490000CB600FD599F800009AF8002018F8001035
:10491000FD48805C014205D09DF805109DF804001B
:10492000FCF76AFCA80605D59DF807109DF806005F
:10493000FCF762FC17F0220F11D09DF806009DF8DD
:1049400007101190FCF73AFC9DF80D00800706D582
:104950001198FCF787FC9DF80700FCF783FC5FEAE1
:104960008B600FD599F800009AF8002018F8001015
:10497000E548805C014205D09DF807109DF80600CF
:10498000FCF73AFC680600E05FE005D59DF80910E9
:104990009DF80800FCF730FC17F0440F11D09DF88B
:1049A00008009DF809101090FCF708FC9DF80D0018
:1049B000400706D51098FCF755FC9DF80900FCF758
:1049C00051FC5FEA4B600FD599F80000CE499AF888
:1049D000002018F80000895C084205D09DF80910F5
:1049E0009DF80800FCF708FC280605D59DF80B107B
:1049F0009DF80A00FCF700FC17F0880F11D09DF815
:104A00000A509DF80B102846FCF7D8FB9DF80D00C6
:104A1000000706D52846FCF725FC9DF80B00FCF79F
:104A200021FC5FEA0B600FD599F80000B6499AF8AF
:104A3000002018F80000895C084205D09DF80B1092
:104A40009DF80A00FCF7D8FB60E2BDF81C209142FB
:104A50007ED817F800C0EA5C1CEA020F78D02CEA76
:104A6000020C07F800C018F80010114308F80010F5
:104A70009DF80D50E80605D59DF805109DF8040039
:104A8000FCF7BAFB9DF80E7017F0110F11D09DF8CE
:104A900004809DF805104046FCF790FB9DF80E1031
:104AA000C90706D04046FCF7DDFB9DF80500FCF782
:104AB000D9FBA80605D59DF807109DF80600FCF760
:104AC0009BFB17F0220F11D09DF806809DF8071070
:104AD0004046FCF773FB9DF80E10890706D540464B
:104AE000FCF7C0FB9DF80700FCF7BCFB680605D58A
:104AF0009DF809109DF80800FCF77EFB17F0440FA5
:104B000011D09DF808809DF809104046FCF756FB2F
:104B10009DF80E10490706D54046FCF7A3FB9DF80B
:104B20000900FCF79FFB280605D59DF80B109DF8A2
:104B30000A00FCF761FB17F0880F85D09DF80A503A
:104B40009DF80B102846FCF739FB9DF80E1000E08D
:104B500009E0090706D52846FCF784FB9DF80B0001
:104B6000FCF780FBD2E1BDF81E209142FAD26349E6
:104B70002039085CE95C0842F4D09DF80E905FEAA9
:104B8000C96005D59DF805109DF80400FCF734FBBD
:104B90009DF80CA05FEACA600DD5594859490078C4
:104BA0000978385C695C084205D19DF805109DF8CC
:104BB0000400FCF721FB9DF80FB05FEACB700DD02D
:104BC0009DF805109DF804000F910E90FCF7F6FA81
:104BD0000E98FCF747FB0F98FCF744FB5FEA8960EF
:104BE00005D59DF807109DF80600FCF705FB5FEA68
:104BF0008A600DD54248434900780978385C695C81
:104C0000084205D19DF807109DF80600FCF7F4FA5C
:104C10005FEA8B700DD59DF807109DF806000D9189
:104C20000C90FCF7CBFA0C98FCF71CFB0D98FCF7EA
:104C300019FB5FEA496005D59DF809109DF8080049
:104C4000FCF7DAFA5FEA4A600DD52D482D49007865
:104C50000978385C695C084205D19DF809109DF817
:104C60000800FCF7C9FA5FEA4B700DD59DF80910F2
:104C70009DF808000B910A90FCF7A0FA0A98FCF73F
:104C8000F1FA0B98FCF7EEFA5FEA096005D59DF89A
:104C90000B109DF80A00FCF7AFFA5FEA0A600DD529
:104CA00017480078395C17480078285C014205D124
:104CB0009DF80B109DF80A00FCF79EFA5FEA0B7056
:104CC0000DD59DF80B109DF80A0089468246FCF729
:104CD00075FA5046FCF7C6FA4846FCF7C3FA08488E
:104CE0000849064B00780978203B1A5C695C8A43C6
:104CF0001A543A5C8A433A5408E00000AA3A002069
:104D00008700002086000020203C010018F80020C9
:104D10008A4308F80020F9E01E291DD218F800B0D7
:104D200015F803A01BEA0A0F16D02BEA0A0B08F8A5
:104D300000B0804C275C27EA0A072754A4F5D874F2
:104D4000275C27EA0A0727540124002789F8007006
:104D5000794F27F81210A3E04FF00A0BDDF824A0DA
:104D6000B1FBFBFEBAFBFBFAD64526D218F800B021
:104D700015F803A01BEA0A0F1FD0DFF8B8E11EF8F0
:104D800000E01EEA0A0F18D1DFF8B0E11EF8077044
:104D9000012F12D02BEA0A0B08F800B001240027DB
:104DA00089F80070DFF8909129F81210DFF89091DF
:104DB00089F8007089F8017072E00A2944D3089FCD
:104DC000B94241D31E293FD3BDF81AA0BAF1000F52
:104DD0003AD0594F37F81270B94235D9CF1B5745E1
:104DE00002DA584FBF5C77B318F800A0EF5CD346E7
:104DF0001AEA070F28D1DFF83CA11AF800A01AEA36
:104E0000070F21D0DDF800A05FEACA7A0BD04BEA89
:104E1000070408F800400124012789F800704A4F70
:104E200027F812103CE0DDF824A0514538D34BEAB6
:104E3000070408F800400124012789F80070424F58
:104E400027F812102CE0FFE7BDF81C7047B3DFF81D
:104E5000F8A03AF812A0514522D2AAEB010ABA45AD
:104E60001EDB18F800A0EF5C1AEA070F18D0DFF875
:104E7000C4B01BF800B01BEA070F11D02AEA070ADA
:104E800008F800A0314C14F800A04AEA070A04F818
:104E900000A00124002789F80070274F27F812107E
:104EA0000A2908D2234F15F803A017F8009029EA21
:104EB0000A0907F8009018F80000EB5C184007D0CA
:104EC000214B33F81250A94202D923F8121007E0FF
:104ED00030B9194830F81230994201D220F8121036
:104EE000A4B100201C4D1A4900221A4B2F880BE058
:104EF00011F81080129DA84504D1BCF1000F01D01B
:104F000004B11A70401CC0B2B842F1D32CB90C2EB7
:104F10000CD112480078002808D10C2E01D00DF0D9
:104F2000FBFB13B0BDE8F04F00F04EB813B0BDE886
:104F3000F08F00006A3A00203A3300200A23002054
:104F4000FA000020F24100203A320020BA38002056
:104F5000283C0100A6000020623C01008C000020DB
:104F600010B51448FDF75AF91348007880B90DF0D0
:104F7000D1FD124C2078C0060AD5FFF7B9F9207888
:104F800020F0100020700B48FDF7FEF8FBF724F925
:104F90000AF0A6FC0A480178002909D009490978D5
:104FA000002905D000210170BDE8104000F08ABA48
:104FB00010BD000050000020440200206C000020C2
:104FC0009B000020B80200202DE9F84FDFF8D0B395
:104FD000F2489BF80010465C00F00EFEF1480078A5
:104FE000012805D1A6F111000B2801D8103EF6B218
:104FF000ED4DEE48DFF8B883297800274FF001091E
:10500000AF290AD00078DFF8ACE3DFF8ACC3EB4A95
:10501000EB4B4FF4304A10BB19E0077098F80020B2
:10502000E84982B181F8009080F80090E648007865
:10503000002803D0E548017811B10770BDE8F88F6A
:1050400080F80090FAE70F70FBF780FEF6E79CF817
:10505000000019781EF80000515C084212D0D549B2
:105060009CF8000014310C5C1978515C0C4209D199
:10507000544698F80020BAB11EF800200A430EF8F2
:10508000002023E04FF4164498F8000090B1C9497D
:105090009CF800001B78143111F800C0D25C4CEA77
:1050A000020C01F800C011E01EF800208A430EF83F
:1050B00000200BE0BF499CF800001B78143111F868
:1050C00000C0D25C2CEA020C01F800C0C048007895
:1050D00040B1B4F5164F01D14FF43A44544501D1D3
:1050E0004FF43C4414F826008DF8000004EB8600D1
:1050F00041788DF8011081788DF80210C0788DF814
:10510000030098F8000090B1B248007878B1B24935
:10511000097861B9B149097849B9012802D0022852
:1051200003D004E0FBF776FE01E0FBF799FE701E6A
:10513000AB4A442819D8117821B9544502D19DF8B9
:10514000003013B1012906D00FE02F70A54951F8A6
:105150002000009009E0544507D19DF8001021B9C6
:105160002F70A14951F820000090A6F151000128AC
:1051700019D8117821B9544502D19DF8002012B1F7
:10518000012906D00FE02F70984951F820000090B7
:1051900009E0544507D19DF8001021B92F709449BA
:1051A00051F8200000909DF800000E2831D2DFE871
:1051B00000F0F4073161758284B930F3F2F1F0EF59
:1051C0008C4880F800909DF801008B49012802D09E
:1051D000032811D01CE09DF8020000F01F008DF89C
:1051E000020098F800201AB14A7802434A700FE092
:1051F0004A7882434A700BE098F8000018B19DF895
:105200000200087104E008799DF8022090430871BB
:105210002F7049E19DF8020008B1287044E19DF823
:10522000010001280ED002280FD0042810D0082831
:1052300011D0102812D0202813D0402814D0802854
:1052400015D031E1E02028702EE1E12028702BE11B
:10525000E220287028E1E320287025E1E42028706E
:1052600022E1E52028701FE1E62028701CE1E720FC
:10527000287019E161480078F0BB61484770877079
:1052800098F8001029B19DF8011041709DF80210A6
:1052900081705C4880F800902F7005E15A48477093
:1052A00098F80010012902D19DF80110417057486B
:1052B00080F80090F8E02F70F6E02F7098F800006A
:1052C000D0B1534C534E207820B1FEF7ABF8307874
:1052D000022825D050499DF8010008709DF8021061
:1052E00031704E490F709DF803204A704C490F7081
:1052F000800000F5104000E0D6E0D0F8000C494AEC
:1053000000F51C4084F8009047490F60C1F80490F4
:1053100046490F8030F8043B5B084B801060C3E0C7
:1053200027708BE62F7098F80000414E78B3414CFF
:10533000207860B19DF80110884208D09DF80210D5
:10534000884204D0287088F800700BF0ADFF6078B8
:1053500060B19DF80110884208D09DF80210884283
:1053600004D0287088F800700BF09EFF9DF80100B3
:1053700020709DF8020060709DF80300A07086F810
:1053800000902D4807802D490A2008708CE057E0D6
:1053900077E071E06BE064E05DE080E0903A01006E
:1053A0008800002095000020890000208C0000204B
:1053B0008D000020684A002087000020203C01006A
:1053C00086000020A6000020690300206A03002058
:1053D000F80000204402002059020020540200205E
:1053E000A800002090560100C0560100F0560100B0
:1053F00020570100A2000020E0000020C70200208A
:10540000BC0000209F000020B4000020A00000206D
:10541000AD000020AB000020AA000020B600002054
:10542000AC000020DC000020F0000020D8000020AC
:10543000B0000020BF000020B8000020AF00002016
:105440009DF80300287088F8007037700BF02CFF6F
:10545000FEF786F828E02F7069463046FEF74AFFCF
:1054600022E02F706946304600F0D2FC1CE09BF829
:10547000000000F0BBF817E09BF8000000F0B6F861
:105480002F702F709DF802009DF80110000200EBB4
:1054900001409DF803100844FEF74EF904E0084867
:1054A0009BF80010405C2870287800283FF4CAADB3
:1054B00000F0BEFB28780028F8D00BF0F5FEBDE523
:1054C000383B01001FB5002000900190029003902E
:1054D000A5208DF80000194841798DF80110817BD5
:1054E0008DF80210417E8DF80310017D8DF80410B7
:1054F000817D8DF80510124909788DF80610017E1E
:105500008DF8071090F823008DF808000D480078FA
:105510008DF80F000C4800788DF80D000B480078CE
:105520008DF80A000A4800788DF80B0000234FF42C
:10553000024210216846FEF77BF81FBDB40200202E
:105540000A0300205D020020A8000020A90000201E
:10555000820000200849488F00280CD0401E80B2ED
:105560004887002807D101F16600027822F008027E
:1055700002700120887770478000002002494FF4B4
:1055800096704887704700008000002010B50446E0
:10559000FEF7FAFD1349144A062C08D2DFE804F09E
:1055A00003080D12171C486940F48040486110BD83
:1055B000486940F40050486110BD486940F480508B
:1055C000486110BD506940F00100506110BD506944
:1055D00040F00200506110BD486940F4006048612D
:1055E00010BD00000070034000A003402DE9FF5FE4
:1055F000FE4CFD482178405CFD4ADFF8F883525CA0
:1056000088F80020FC4A12F82030ADF8003002EB98
:1056100080025378ADF802309378ADF80430D27838
:10562000ADF80620F54A02EBC0008278C37802EBA1
:10563000032293B2ADF808300279457902EB0522D6
:1056400092B2ADF80A208579C07905EB002080B2CE
:10565000ADF80C00BDF80450BDF80660002B02D177
:105660009623ADF80830BDF808301E2B02D81E2353
:10567000ADF80830E24B33F8111059B9521E092A1F
:1056800002D20A22ADF80A20401E092802D20A20BE
:10569000ADF80C00B1F5A57F0ED3BDF80A101420AB
:1056A000491E132901D2ADF80A00BDF80C10491E9D
:1056B000132901D2ADF80C00D248C07A70B1BDF800
:1056C0000A100620491E052901D2ADF80A00BDF8CE
:1056D0000C10491E052901D2ADF80C00E8B2FCF708
:1056E000E5F90446BDF80600C0B2FCF7DFF98346D1
:1056F000DFF814A3C54F9AF8000070B198F80010B5
:105700008D4203D13A5D42F004023A558E4212D1E5
:10571000395D41F0080139550DE098F800108D42CF
:1057200003D13A5D22F004023A558E4203D1395D2D
:1057300021F008013955BDF800100B2939D00C298A
:1057400073D117F8049098F80000B14A85420CD143
:10575000A64BAB491B7831F813300A21B3FBF1F1AA
:1057600022F8141029F00101395586420DD19F4BC2
:10577000A3491B7831F813300A21B3FBF1F122F869
:105780001B10395D21F002013955984B9C491B785B
:1057900031F81310BDF8083099426ED932F8143040
:1057A00032F81B20934269D93A5D42F001023A5522
:1057B00003E1BDF80210032906D001293AD00229DD
:1057C00064D0042977D0BDE098B198F800008542F4
:1057D00006D1385D40F0010000F00D003855B1E011
:1057E000864205D1385D40F0020000F00E003855C9
:1057F000A8E098F8000085420CD1385D010705D576
:1058000040F0020000F00E0038559BE000F00C0064
:10581000385597E0864207D1385D410706D540F0FC
:10582000010000F00D0038558CE05BE100F00C0049
:10583000385587E098B198F80000854206D1385D68
:1058400040F0010000F00D0038557BE0864279D130
:10585000385DC10776D140F00200385572E098F803
:10586000000085420BD1385D00F00E00385501076D
:1058700068D540F00200385564E0ADE098E086421B
:1058800060D1385D00F00D0038555BE0A0B198F8AC
:105890000000864206D1385D40F0020000F00E00A4
:1058A00038554FE085424DD1385D81074AD440F0EC
:1058B0000100385546E014E098F80000864209D10E
:1058C000385D00F00D00385541073BD540F0010030
:1058D000385537E0854235D1385D00F00E00385537
:1058E00030E0B0B1385D410705D5010703D500F0C0
:1058F0000C00385526E098F800108D4203D140F096
:10590000010038551EE08E421CD140F0020038558F
:1059100018E098F80000854209D1385D00F00E00CB
:10592000385501070ED540F0020038550AE086428E
:1059300008D1385D00F00D003855410702D540F020
:10594000010038553348007858B9385D410702D511
:1059500040F001003855385D010702D540F00200E3
:105960003855385DC00707D001208AF8000088F854
:1059700000500BF099FC06E000208AF8000088F83F
:1059800000500BF091FC385D800708D501208AF8A3
:10599000000088F80060BDE8FF5F0BF085BC0020C8
:1059A0008AF8000088F80060BDE8FF5F0BF07CBC5F
:1059B00003D23A5D42F002023A55B1F5967F0BD31D
:1059C000854203D13A5D42F001023A55864203D145
:1059D000385D40F002003855DFF83CC0DFF83C800D
:1059E000C82930D30A4A1BE0903A01008800002001
:1059F000383B0100890000203A2500203A29002088
:105A00003A340020FA0000208D0000203A370020B0
:105A10003A24002081000020203C01008600002064
:105A20003148103A0378D05C98F800201CF8022026
:105A3000104208D12D491043C85401208AF80000B3
:105A40000CF06AFE12E0C82910D82748274B98F8B6
:105A5000002001781CF80220585C104206D09043C8
:105A6000585400208AF800000CF056FE4FF0000851
:105A70008AF80080385DC10702D05FEAC97102D0A0
:105A8000C00708D010E001208AF80000184805700F
:105A90000BF00AFC08E05FEAC97005D08AF80080C4
:105AA000134805700BF000FC385D81070AD55FEAEA
:105AB000897107D401208AF800000D4806700BF0A8
:105AC000F3FB0AE0800708D45FEA897005D58AF8FD
:105AD0000080074806700BF0E7FB064800F80480DA
